:02000002F0000C
:104000000000042065A50F008DA50F008FA50F00EF
:1040100091A50F0093A50F0095A50F0000000000CB
:10402000000000000000000000000000A14C0F0094
:1040300099A50F00000000009BA50F0009490F0083
:10404000254E0F009FA50F009FA50F009FA50F00F5
:104050009FA50F009FA50F009FA50F009FA50F0014
:104060009FA50F009FA50F009FA50F009FA50F0004
:104070009FA50F009FA50F009FA50F009FA50F00F4
:104080009FA50F00A5720F009FA50F009FA50F0011
:1040900061730F009FA50F0089470F009FA50F00B8
:1040A0009FA50F009FA50F009FA50F009FA50F00C4
:1040B0009FA50F009FA50F0000000000000000005A
:1040C0009FA50F009FA50F009FA50F009FA50F00A4
:1040D0009FA50F009FA50F009FA50F00698B0F00E4
:1040E0009FA50F009FA50F009FA50F0000000000D7
:1040F000000000009FA50F00000000009FA50F001A
:1041000000000000000000000000000000000000AF
:10411000000000000000000000000000000000009F
:10412000000000000000000000000000000000008F
:10413000000000000000000000000000000000007F
:10414000000000000000000000000000000000006F
:10415000000000000000000000000000000000005F
:10416000000000000000000000000000000000004F
:10417000000000000000000000000000000000003F
:10418000000000000000000000000000000000002F
:10419000000000000000000000000000000000001F
:1041A000000000000000000000000000000000000F
:1041B00000000000000000000000000000000000FF
:1041C00000000000000000000000000000000000EF
:1041D00000000000000000000000000000000000DF
:1041E00000000000000000000000000000000000CF
:1041F00000000000000000000000000000000000BF
:1042000010B5054C237833B9044B13B10448AFF310
:1042100000800123237010BDCC800020000000002E
:1042200074B50F0008B5034B1BB103490348AFF346
:10423000008008BD00000000D080002074B50F0091
:10424000154B002B08BF134B9D46A3F5803A002168
:104250008B460F461348144A121A00F063F80F4BAE
:10426000002B00D098470E4B002B00D09847002021
:10427000002104000D000D48002802D00C48AFF3C7
:10428000008000F02BF82000290000F0A7F800F0D3
:1042900011F800BF0000080000000420000000002A
:1042A00000000000CC80002024C800200000000096
:1042B0000000000008B5074B044613B10021AFF31E
:1042C0000080054B1868836A03B19847204600F0C8
:1042D00031F800BF00000000DCB10F0070B50D4DDB
:1042E0000D4C641BA4100026A64209D10B4D0C4CAA
:1042F00006F068FF641BA4100026A64205D170BD1D
:1043000055F8043B98470136EEE755F8043B9847CB
:104310000136F2E7C4800020C4800020C480002061
:10432000C880002002440346934200D1704703F83E
:10433000011BF9E7FEE700BFBFF34F8F0549064BAE
:10434000CA6802F4E0621343CB60BFF34F8F00BF33
:10435000FDE700BF00ED00E00400FA054BDF704709
:1043600010DF704711DF704713DF704718DF7047A9
:1043700060DF704769DF704761DF704708B5034B46
:104380001B68DB0700D500BEFFF7D6FFF0ED00E0AD
:10439000014B1878704700BFE98000201FB500234B
:1043A000CDE901330393684602230093FFF7DEFF54
:1043B00005B05DF804FB08B5032000F067FB4FF47F
:1043C0006D2000F08BFD43F20803186800F086FDB5
:1043D0000420BDE8084000F059BB00002DE9F04F73
:1043E0004FF0804387B0D3F81C65D3F81C25A6F1A5
:1043F000B104D4F1000848EB0408B12A72D0D3F814
:104400001C45A4F1A80044424441AB4D04F0010313
:104410002B704FF08043D3F81C757CB94E2F0DD014
:10442000D3F81C25572A09D0A44A12681168A44A57
:10443000914209D1D3F80034D90705D54FF0804314
:104440000022C3F81C2501249E4B40F20232C3F81F
:1044500040259D4B1B68B3F5742F02D0002003F05C
:1044600039FA00F07BFA00F0B9FF002000F00EFBF3
:1044700001F028F878B1052000F008FB01F034F8CD
:1044800008B103F027FA01F055F808B103F022FA59
:10449000062000F0FBFA1CB91D2000F08FF904463D
:1044A0002B780BBB1D2000F089F910B1222000F001
:1044B00085F900F0010043F2080328701868DFF85E
:1044C00030B200F0D3FE814630B12CB97B4B1B6873
:1044D0001A687E4B9A422AD07D4B1B685B4518D1E7
:1044E000012424E0012490E70120E2E74C461EE08D
:1044F0004FF480030B6054E0022000F0C7FAA7F1EC
:104500004E035842584103F0F7FEA2E003F03AFF91
:10451000ACE0002CE4D1B9F1000FE7D0674B684A5A
:104520001B686C481A606C4B43F00103984768495C
:10453000624A09681368594592460CBF634A0022D3
:104540001A601CB9B9F1000F40F090802C78002C53
:10455000D2D0082000F09AFAB12E01D0FFF71EFF4A
:104560004FF47420FFF700FF08B103F0B3F95B4B81
:104570005B491868019001A8FFF7F2FE08B103F04B
:10458000A9F9584991F816335A09EC231341DA076F
:1045900007D5554B9A68002AAAD01A6842F48002BF
:1045A0001A600C22514B029300210DEB0200FFF721
:1045B000B9FE40F20113029A039303A94020FFF7CA
:1045C000D9FE08B103F086F90C2200210DEB0200A0
:1045D000FFF7A8FE9DF80C30029A43F0010303A9EF
:1045E000A0208DF80C30FFF7C5FE08B103F072F97A
:1045F0000C2200210DEB0200FFF794FE01238DF841
:104600000C30029AF72303A92320ADF80E30FFF7F0
:10461000B1FE08B103F05EF90C2200210DEB02009F
:10462000FFF780FE01238DF80C308DF80E30029AD2
:10463000062303A92020ADF81030FFF79BFE08B138
:1046400003F048F902A8FFF793FE08B103F042F91E
:10465000A0460021287800F0D9FE08B103F03AF90D
:104660002B78002B3FF452AFFFF77CFE1D2000F0AB
:10467000A5F828B9222000F0A1F808B1FFF79BFEA9
:1046800000F06CFA43F20803186800F0EFFD80B107
:1046900000F018FF68B9B8F1000F01D1FFF77EFEF6
:1046A000DAF8003000221A6043F20803186800F0BC
:1046B000E1FEFFF741FE00BFE9800020648000209A
:1046C000D51A5A0000A00040141000107E67E54E75
:1046D000006202000048E801F0B10F00E0B10F00F5
:1046E0007D430F0000E100E048C70020008000206B
:1046F0007CB0EE8710B5FEB04FF4FA730DF10201F5
:1047000001A8ADF80230FFF737FE044640B9BDF806
:104710000430102B07D0112B0CD001A801F092F916
:1047200020467EB010BD054B01221A70072000F014
:10473000ADF9F2E7014B18700820F8E7E880002097
:1047400013B501A8FFF70AFE044660B9019802F00C
:10475000ADF8019B0A2B09D0092B09D00B2B02D1F4
:10476000012004F037FB204602B010BD2046F8E7D8
:104770000220F6E708B5FFF7BDFF0528FBD1FFF7DC
:10478000DFFF0528F7D108BD0021024A084603F0E3
:1047900009B800BF75470F001F2884BF00F01F0035
:1047A000044B054A98BF4FF0A04300F5E07043F872
:1047B00020207047000300500C0003001F288ABF10
:1047C000064B4FF0A04300F01F00D3F8103523FA3A
:1047D00000F0C04300F00100704700BF000300502C
:1047E00000234FF0FF328360C0F80035C0F8602529
:1047F000C0F86425C0F86825C0F86C2540F2FF3287
:10480000C0F80435C0F80825C0F80C35C0F81035DC
:10481000C0F81435C0F82035C0F8243570470000C2
:104820001B4B00221F2930B5C3F800258BBF01F0B8
:104830001F030B46174A4FF0A04203F5E07403250F
:1048400042F82450012404FA03F3C2F80C3500F5B1
:10485000AC700F4B002243F82010FF21C3F8042551
:104860000220C3F808150421C3F80C15C3F810057D
:104870000948C3F81425C3F82005C3F82415C3F864
:104880002825C3F82C25C3F80045C3F8102130BDF6
:1048900000C0014000030050E08200200148FFF703
:1048A0009FBF00BF00C00140074B23F81010074B0B
:1048B00000221A6082B01B680193019B044B012205
:1048C0001A6002B0704700BFE082002010C10140B2
:1048D00008C001400A4B1A680A4B1B68B3FBF2F18F
:1048E000500802FB1133834288BFD31A4F2159432A
:1048F000B1FBF0F1C1F1FF0189B20020FFF7D4BF95
:104900001C830020DC820020024A136801331360FC
:10491000FFF7E0BFDC8200200F4B00221421C3F818
:104920000C25C3F80425C3F80815C3F81425C3F8EB
:104930001025C3F82825C3F82C250822C3F86025C4
:104940004FF0FF32C3F86425C3F86825C3F86C251F
:104950000122C3F800257047001002404FF0804349
:1049600010B501220024DA601D20C3F818459A60B2
:10497000FFF712FF2220FFF70FFF164B4FF4C8502E
:1049800043F00103984706212046FFF749FFFFF750
:10499000C3FF114A1E21082002F0E0FE08B102F018
:1049A00099FF02F043FE0D490D4BE02081F82300F2
:1049B0001B684FF47A72B3FBF2F3013BB3F1807FD3
:1049C00007D2084A5360002381F82300936007232D
:1049D000136010BD00B20F00EC80002000ED00E07D
:1049E0006C80002010E000E0F0B585B043788DF8D1
:1049F000043083788DF80530214903788DF806302E
:104A000001AD082248F20D0648F20607A2F108039C
:104A100015F801CB9BB280241CEA040F14BF30466A
:104A2000384621F81300581C80B290424FEA5404D3
:104A300024D1083292B2202AE8D102339BB24FF43B
:104A400000420A8621F813200E4B1A22C3F82015C3
:104A5000C3F8242503F5887300221A601A680292AD
:104A6000029A094A012111601A68002AFCD000222A
:104A70001A601B680393039B05B0F0BD0346CBE7A8
:104A8000E8820020001002400810024037B5214C97
:104A9000002225680095019208281AD8DFE800F066
:104AA0000C050C19191308292B004FF47F430093B0
:104AB000194B40F6B8320BE04FF47F0300934FF4EC
:104AC0009672154B04E04FF47F030193124B64225E
:104AD0001A60009B1149019A0B40009372B10A4081
:104AE0000F4B019201221A7001A8FFF77DFF03B05E
:104AF00030BDFF23DBE74FF0FF13DFE79D4202D01D
:104B000023606846F1E7064B1B78002BEFD0014885
:104B1000EBE700BF208300201C8300200404040076
:104B20002483002013B50B4C0023ADF804308DF81E
:104B3000063044F001044FF44860A04701A8FFF795
:104B400053FF4FF44860A0470348FFF749FE02B007
:104B500010BD00BF00B20F0000100240174B10B58F
:104B600000241C60FFF79AFEFFF7DCFF144B4FF4A4
:104B70000032C3F8802003F1C04303F53C534FF4E7
:104B80008032C3F84823C3F8082301225A609A6090
:104B90004FF080430220DA6023460A4C1F2B1A464E
:104BA000C6BF03F01F0221464FF0A04102F5E0729C
:104BB0000133302B41F82200F0D110BD10E000E0AD
:104BC00000E100E00003005038B50C4C21684B1C9C
:104BD000054612D04FF48052094805F063FE48B1F3
:104BE00015B1206800F07AF94FF48062044920681A
:104BF00000F094F94FF0FF33236038BD6880002047
:104C0000288300202DE9F0410F4E904620F47F6468
:104C1000326824F00F04A24205460F4609D0184618
:104C2000FFF7D2FF4FF4805221460848346005F068
:104C300047FE0648C5F30B05424639462844BDE801
:104C4000F04105F03DBE00BF6880002028830020B1
:104C500038B50C46F8B90968D9B1104A91421546E1
:104C60000CD0531A3B2B12D93C22284605F028FEC3
:104C700004E0C85CD05413F1FF33FAD200223C2187
:104C8000064802F06FFE0023A887236038BD3D234D
:104C9000F1E70E23F9E70123F7E700BF807F00204B
:104CA0006FF00203064A9E4502D1EFF3098101E04D
:104CB000EFF308818869A0F102000078104700BF77
:104CC000514C0F0038B50546A8B10D4C00223C21CF
:104CD000204602F047FEA38F83420ED1224604F104
:104CE0003C0152F8040B45F8040B8A42F9D1013318
:104CF000A387002038BD0E20FCE70B20FAE700BF99
:104D0000807F00200B2970B50446154630D90389F1
:104D1000053300EB43030144CA1AD2B2012A27D952
:104D20008B4225D81946134805F0CAFD2388522B1B
:104D300006D1AB0711D062884CF668639A420CD05A
:104D40000F2014E034F8022B824204D02E889642C1
:104D500003F1010308D1002009E0218900230A346E
:104D60004FF6FE7043F20C059942EBD80B2070BD54
:104D70000920FCE72893002008B5002202F0F2FD8C
:104D8000044A5178137843EA0123984214BF0B2058
:104D9000002008BD2893002000F1804382B01A68EB
:104DA000002A14BF0120002004D000221A601B68D2
:104DB0000193019B02B070470F4B1A78D2B9027869
:104DC0004FF08041C2F34002C1F88025027802F022
:104DD0000102C1F87825094A1168C90706D4E02103
:104DE00082F800130121C2F88011116001221A70AB
:104DF000034870470348704744C7002000E100E0C3
:104E00000000AD0B0C00AD0B014B02681A6070473F
:104E10003C9300204FF080434FF46072C3F80423AA
:104E20007047000010B54FF08043D3F80443620789
:104E300007D54FF48470FFF7AFFF10B11E4B1B680E
:104E40009847A30608D54FF48A70FFF7A5FF18B15D
:104E50001A4B00201B689847600608D54FF48C70E9
:104E6000FFF79AFF18B1154B01201B6898472106E0
:104E700008D54FF48E70FFF78FFF18B1104B00204C
:104E80001B689847E20508D54FF49070FFF784FF40
:104E900018B10B4B01201B689847A3050AD54FF4A6
:104EA0009270FFF779FF28B1054B02201B68BDE81F
:104EB0001040184710BD00BF3493002038930020E5
:104EC0003C930020044AD2F80034DB07FBD5016094
:104ED000BFF35F8F704700BF00E001404FF0805389
:104EE0001A69B0FBF2F302FB130373B9084B0222F9
:104EF000C3F80425C3F80805D3F80024D207FBD56E
:104F00000022C3F80425034870470348704700BFD8
:104F100000E001400000AD0B0A00AD0B0A4B70B57C
:104F20000124C3F8044501EB82050C46461AAC4245
:104F300004D1054B0022C3F8042570BD301954F884
:104F4000041BFFF7BFFFF2E700E00140BFF34F8F04
:104F50000549064BCA6802F4E0621343CB60BFF315
:104F60004F8F00BFFDE700BF00ED00E00400FA0531
:104F7000064B1B68082B06D1054B1B68032B02D878
:104F8000044AD05C70470020704700BF3001001019
:104F90003401001006B20F0008B5724B1B68082BD5
:104FA00050D14FF080430022C3F80C21C3F81021E8
:104FB000C3F838254FF0805203F54043D2F804146B
:104FC000C3F82015D2F80814C3F82415D2F80C142D
:104FD000C3F82815D2F81014C3F82C15D2F81414FD
:104FE000C3F83015D2F81814C3F83415D2F81C14CD
:104FF000C3F84015D2F82014C3F84415D2F824148D
:10500000C3F84815D2F82814C3F84C15D2F82C145C
:10501000C3F85015D2F83014C3F85415D2F834142C
:10502000C3F86015D2F83814C3F86415D2F83C14EC
:10503000C3F86815D2F84014C3F86C15D2F84424AC
:10504000C3F87025FFF794FF10B1474B474A1A6029
:10505000FFF78EFF18B1464BFB22C3F81825FFF768
:1050600087FF48B14349444B0A681B6822F00F028E
:1050700003F00F0313430B60FFF77AFF18B13F4BA8
:105080004FF400721A60374B1B68082B09D14FF0A0
:105090008043D3F80024D10744BF6FF00102C3F866
:1050A0000024374AD2F8883043F47003C2F88830BD
:1050B000BFF34F8FBFF36F8F4FF01023D3F80C2245
:1050C000D2071ED52F4B0122C3F80425D3F80024A4
:1050D000002AFBD04FF01022D2F80C3223F001034B
:1050E000C2F80C32274B1A46D3F800140029FBD023
:1050F0000021C3F80415D2F80034002BFBD0FFF7D1
:1051000025FFD3F80022002A03DBD3F80432002B5A
:1051100023DA1C4B0122C3F80425D3F80024002A0B
:10512000FBD04FF010221221C2F80012D3F8002455
:10513000002AFBD04FF010231222C3F80422114B97
:105140001A46D3F800140029FBD00021C3F8041537
:10515000D2F80034002BFBD0D1E70B4B0B4A1A607E
:1051600008BD00BF300100108C560040488103008C
:1051700000F00040E40E004058020010409602404B
:1051800000ED00E000E001406C8000200090D003C2
:1051900011DF704713DF7047064B1878012803D1E1
:1051A000012904BF0221197012B1104602F092BB0E
:1051B000704700BF6C93002070B5124C124D134E17
:1051C000D4F800347BB1C4F80056C4F80456C4F8CF
:1051D0000856C4F80C56C4F81056C4F81456C4F84F
:1051E0001856C4F81C5602F043FB05F0B5F920B17F
:1051F00004F00CF9002004F0D5FC3378023B022BBC
:10520000DED870BD000001403546526E6C93002020
:1052100008B5FFF7BDF888B11C21114801F0DEFB8D
:1052200008B102F057FB00231C220E490C4801F084
:10523000C5FB98B1BDE8084002F04CBB4FF47F209D
:10524000FFF74CFE072207494FF47F20FFF766FE69
:10525000054B1A78012A04BF02221A7008BD00BF4C
:1052600064930020709300206C93002007B50368BE
:10527000013303D1002003B05DF804FB01A800F066
:1052800087F9019B1A88012AF4D1588830B19968AE
:1052900043F208030022186802F064FB019B5B885C
:1052A0001B1A58425841E6E784B02DE9F34108AC97
:1052B00084E80F009DF82040BDF822800B9D01A8D6
:1052C000DDE9097600F064F954B9384B0122FF2179
:1052D000A3F802809D601A809980354B1A7012E005
:1052E000012C17D1314BBA192A449A60A5221A8091
:1052F000FF229A800C9AA3F80280C3E903765D61CD
:105300009A612B4B1C70FFF783FF02B0BDE8F041A0
:1053100004B07047032C0FD1019A244B11881980D7
:10532000518892689A60C3E90376AA2259809A80CC
:105330005D611F4B0122D1E7022C15D1019A1B4B55
:105340001188A5290AD100229A60FF221A60FF2243
:105350009A800022C3E903225A61EAE71980518842
:10536000926859809A60F2E7052C0ED1FFF710F889
:1053700040B100F041FD08B102F0ACFA0C4B032241
:105380001A70C2E700F0FAF9F5E7042C08D1074BD0
:1053900000229A60FF221A60019A92889A80B2E7EE
:1053A000062CB2D1024B0422EAE700BF7093002022
:1053B0006C93002000B5084B1B7889B043B90523D6
:1053C0008DF80C30079B009303AB0FCBFFF76CFFFE
:1053D00009B05DF804FB00BF609300201FB50023F7
:1053E000CDE90233074B019301F0B4FA30B9064915
:1053F0004FF47F2301A84B6001F0CEFA05B05DF8B1
:1054000004FB00BF99510F006493002070B505465E
:105410000E4600F081FF044628B935B100F048FC83
:105420000446FFF7C9FE204670BDBEB10D4B0E4AC3
:105430000E481D70294602F029F94FF400444FF43C
:10544000FA7000214FF47A720023E4FB060105F0A4
:10545000A7F82A460146064802F02AF900F06AF940
:10546000DEE700BF60930020B5530F000CB20F00C1
:105470004093002038B5FFF78BFE08B102F02AFAFE
:105480000F490D680023012404FA03F22A4207D0D1
:105490005A0903F01F00203204FA00F041F82200FC
:1054A0000133302BF0D143F208042068FFF772FE7D
:1054B00008B102F00FFA2068BDE8384000F08CB85F
:1054C00000E100E007B501A800F062F8019B1A882E
:1054D000A52A07D09888A0F1AA035842584103B0E2
:1054E0005DF804FB0120FAE710B501F039F9A8B125
:1054F0000E4B0F4843F00103984701F0AFF808B195
:1055000002F0E8F901F02CF908B102F0E3F901F03A
:10551000EFF8044638B102F0DDF904E001F002F9D9
:1055200004460028E4D1204610BD00BF10B20F0091
:1055300000A8610000B589B003AB14220021184611
:10554000FEF7F0FE02228DF80C20002200920FC818
:10555000FFF7AAFEFFF730FE002009B05DF804FB5C
:1055600013B5044601A800F013F8019B1A882280A5
:105570005A8862809A68A2609A88A280DA68E2609B
:105580001A6922615A6962619B69A36102B010BD08
:10559000014B0360704700BF00F00F00F0B50346F9
:1055A000186880F308885868FF2464B2EFF3058513
:1055B000002D01D1A64600472546064621273FBAC1
:1055C000F0B40024002500260027F0B4F92040B2F2
:1055D000004700BFF0BD00BFFFF7E0BF73B5002379
:1055E0000DF1020101A8ADF80230019302F0FCFDBB
:1055F000F8B9019C25785DB3174B93F83020032A46
:1056000028D00C2606FB00F29958E9B998189D504D
:1056100093F830200132D2B283F83020BDF8023046
:105620000E4A9B08013B043443608460084602F044
:10563000B9F8019B33B128B1184602F0F1FD08B169
:1056400002F048F902B070BD01300428DAD1F0E769
:105650000720EEE70420ECE78C930020A5560F000E
:1056600010B50C230B4A4343D418D15881B192F89A
:105670003010A0680139C9B282F830100021D15031
:10568000C4E90111043802F0CBFD08B102F022F99F
:10569000002010BD8C93002011B1084602F01AB909
:1056A00070470000214B70B50122214E1A7096F808
:1056B000303003B970BD1E4C0025236883B1013B17
:1056C000042B07D8DFE803F01C061203280020464D
:1056D00000F0C2FEE8B2FFF7C3FF08B102F0FAF82B
:1056E0000135042D04F10C04E7D1E0E7A368636001
:1056F000204600F05BFE0028ECD002F0EBF8E9E772
:10570000204600F031FF00F00DFF08B102F0E2F892
:105710000520FFF7BBF9DDE700F056FF00F078FF4A
:105720000620BDE87040FFF7B1B900BF60930020CC
:105730008C93002008B50E4B002283F830201146D0
:105740000132042A1960C3E9011103F10C03F7D1F6
:10575000084800F025FE02F0DFFC08B102F0BAF8BC
:10576000054802F0C5FC08B102F0B4F8002008BDFD
:105770008C93002099560F00DD550F0008B50020CE
:10578000FFF76EFF0120FFF76BFF0220FFF768FFB6
:105790000320FFF765FFBDE8084002F005BD006883
:1057A00070476CDF70476DDF70476EDF70476FDFEB
:1057B000704772DF704773DF704774DF704776DFC2
:1057C000704777DF70477ADF70477CDF70477FDF95
:1057D000704786DF70478FDF704790DF7047AFDF1D
:1057E0007047B0DF7047B1DF7047B2DF7047B5DF99
:1057F000704764DF704766DF70470C2813D8DFE816
:1058000000F014121212121209120712120D0B00DC
:10581000022070470320704704207047042914BFFA
:10582000062005207047062070470120704702F0CF
:1058300051B810B5044608460321FFF7DEFF0321E7
:105840000246204601F060FA18B1BDE8104002F0AF
:1058500041B810BD032810B50B46144620D00428CB
:1058600025D169B1124B18884FF6FF7398421ED0AC
:105870001321FFF7A4FFD0B1BDE8104002F02AB811
:10588000104602F0CBF808B102F024F8094B1B686F
:105890009C420CD101220321074801F035FAEAE7C6
:1058A00001211846FFF7A9FF01210246F4E710BDC8
:1058B000728000208094002030940020F8B50A4CBB
:1058C000A3889E181D2E15460DDC2768FE1802F1D0
:1058D000010C07F803C07070B01C04F0F1FFA2883F
:1058E00002322A44A280F8BDE0930020F0B54A4D70
:1058F0002C7893B0002C40F08A80484E102221462C
:105900003046FEF70FFD464B3360182221460CA8A7
:10591000FEF708FD28230E93424B1B7801278DF8D4
:10592000307006AE002B74D021463F4C102202A8E6
:10593000FEF7F8FC102202A9E01D04F0B3FF0028D6
:1059400067D03A4839460460FFF72FFF08B101F0ED
:10595000C1FF374B374603F1100C186859683A46B7
:1059600003C2083363451746F7D12068A2880A901E
:105970003048A379ADF82C20002101228DF82E307B
:105980000660FFF714FF08B101F0A4FF03238DF8B0
:10599000443004238DF8063041F23053ADF808301E
:1059A000254B32469B798DF80A300DF1070102A88C
:1059B000FFF71FFF012210460DF10601FFF77EFFE2
:1059C0001E4804F0C5FF1D49C2B20920FFF776FF4B
:1059D000102231460620FFF771FF0CAA0F49184824
:1059E000FFF7E7FE08B101F075FF154C042221789E
:1059F0000120FFF7E6FE08B101F06CFF01212078DD
:105A0000FFF7D9FE08B101F065FF01232B7013B039
:105A1000F0BD0623BEE700BF64940020E0930020A1
:105A2000C09300202C940020F09300207C94002050
:105A3000F7930020609400203094002016B20F00ED
:105A400070800020F0B504460146B1B08E4801F0E8
:105A50008FF92388212B00F0048142D8112B00F00C
:105A60009C8007D8012B00F0BE80102B00F08E80A8
:105A700031B0F0BD142B00F0D4801A2B5BD0132B67
:105A8000F6D1824B03AC9A79186899888DF8222058
:105A90000790DA1DADF820101733264610685168BC
:105AA000254603C508329A422C46F7D1784B09AAFD
:105AB00003F11807154618685968144603C40833DB
:105AC000BB422246F7D1186820607248724A0088AB
:105AD00010AB8521CDE91456FFF779FE0028C7D019
:105AE000B5E0512B00F085801ED8232B00F0B2804A
:105AF000262BBDD1237A012BBAD1684B00221A7014
:105B0000674B196801391960002969D110AB14225B
:105B10001846FEF707FC05228DF84020149A0092E3
:105B20000FC8FFF7C1FBA3E7552B00F0A380562B4E
:105B30004CD0522B9CD1574B1C884FF6FF75AC4272
:105B400000F08480574B1B78002B79D0012308226A
:105B500055492046FFF747FE002878D10246014606
:105B600002232046FFF73FFE002870D12A460C2171
:105B70002046FFF734FE43F2020398423FF478AF29
:105B800008283FF475AF1128A8D171E7414BA288CE
:105B90001A80424B00221A706AE78023ADF8243045
:105BA0003C4C3F4B208832221A6010A9012309AADD
:105BB000FFF71BFE08B101F08DFE3C4B1B780BB9C3
:105BC000FFF794FE4FF6FF73238051E7A379002B74
:105BD0007FF44EAF2F4B13211888FFF7F0FD7DE7C0
:105BE000FFF784FE44E72B4B00211888FFF703FEE4
:105BF00074E7A379002B3FF43BAFA27B043A022A5F
:105C00003FF636AF022B18BF01238DF840304FF41A
:105C1000C173ADF844301F4B10A91888FFF7E1FDA0
:105C20005CE71A4A258A518D02F1180000238D4243
:105C30000CBF014619460732A088FFF7CAFD4DE7A1
:105C40001A4619462046FFF7CEFD47E7082001F027
:105C500041FE0DE70F4B002211461888FFF7BDFDEE
:105C60003CE70023ADF840300A4B10A91888FFF735
:105C7000B2FDFDE6E188074BF72928BFF721188818
:105C8000FFF7B5FD2AE700BF30940020F093002015
:105C900008940020728000207294002064940020F8
:105CA000748000202C9400202494002077940020FD
:105CB00030B5434A434800231370434A95B01370EC
:105CC00000F06EFB01F06AFE0446002861D13F48F7
:105CD000FEF7F8FF00285FD13D4B01221A70112317
:105CE0003C488DF8043004F033FE3A4982B201A8F2
:105CF000FFF76BFD08B101F0EDFD0822002104A8BB
:105D0000FEF710FB344A4FF0C87304A8CDE9042312
:105D1000FFF759FD08B101F0DDFD00210C2201A8BB
:105D2000FEF700FB0823ADF804302C4B029301A9C9
:105D30002B4B2C48039300F069FE08B101F0CAFD1B
:105D4000294D4022002104A8FEF7ECFA284604F071
:105D5000FFFD0595254DADF81000284604F0F8FD2F
:105D60000795234DADF81800284604F0F1FD1123E6
:105D7000ADF8300004A8ADF84C300D9501F00EF9E7
:105D80001C4B30221A7007225A7010229A70FFF7AB
:105D9000ADFD204615B030BD04A8FFF704FD08B1E5
:105DA00001F098FD9DF8113004A801338DF81130F1
:105DB000FFF7F7FC002892D001F08CFD8FE700BFC1
:105DC0007794002055580F0071940020F093002024
:105DD0002C94002016B20F0008001800495E0F0036
:105DE0002F580F00309400201DB20F0031B20F0069
:105DF0004CB20F007294002010B50F4B01221A70A4
:105E00000E4B18884FF6FF73984207D01321FFF707
:105E1000D6FC08B101F05EFD002010BD084C2278D0
:105E2000002AF9D0074B1878FFF7C7FC08B101F03A
:105E300051FD00232370EFE777940020728000204B
:105E40006494002070800020F0B50B7889B005467E
:105E50000C46092B23D8DFE813F02B003300420057
:105E60000A0018002400FE00070145000C0100F0A4
:105E7000ABFB0421FFF7C1FC04210246284600F0D9
:105E800043FF60B101F026FD09E0FFF7B5FF08B15F
:105E900001F020FD00F0BCFB08B100F0D1FB09B01F
:105EA000F0BDFFF7A9FF0028F7D001F013FDF4E7DC
:105EB000724B01221A704B681A78714B1A70EEE718
:105EC0006E4B02261E704B681B78012BE7D100F049
:105ED00029FB3146FFF791FC02463146CEE7674B7E
:105EE0000322EBE70520FEF7D1FD644B1E78022E5E
:105EF0002AD0032E4FD0012ED1D104AB1022184648
:105F00000021FEF70FFA5E4A237A12788DF81020EE
:105F1000002203920C2B4FF00302CDE90120DCD1CB
:105F200063681846FFF73BFC0590181DFFF737FC28
:105F3000069003F10800FFF732FC079001A800F07B
:105F400035FA0028ABD0C4E7237A13F0030010D051
:105F5000C0F104021A44D2B219464FF0000C67682F
:105F60004E1C07F801C0F1B29142F8D11B1A04335C
:105F700023720123049363680693237A04A89B0881
:105F8000059300F0F1FA002889D00221FFF735FCD3
:105F90000221024672E7207A830702D03246314658
:105FA0006CE7384E0190314601F00EFD014618B104
:105FB0002846FFF73EFC72E76168019A306804F0FA
:105FC0007FFC019801F066FD01460028F0D101A98F
:105FD000304601F06FFD01460028E9D10423049307
:105FE000019B9B08059304A83368069300F034FADC
:105FF000074640B9244A237A11680B441360234BA7
:1060000032681A604BE709281BD11F4B217A1A68A6
:10601000114419601E4B1B78002B3FF440AF1D4C00
:106020002388013B9BB22380002B7FF438AF2846A6
:1060300000F030FE08B101F04DFC174B1B882380A7
:106040002DE7306801F0EAFC014610B12846FFF761
:10605000F0FB3946ACE70E4B01221A700E4A8B88D2
:1060600013800C4A13801AE7094A002313700A4A66
:10607000F8E7054B196800F0D1FD02E771940020A4
:10608000789400208494002068940020809400205C
:10609000709400206E9400206C94002018DF7047EC
:1060A0000129F8B50D4614461F4607D0032912D022
:1060B00014B32046BDE8F84001F00CBC0F4B1B7830
:1060C000052BF5D10E4B1B68002BF1D03A4621462B
:1060D00004209847ECE7094E3378022BE8D1094BAE
:1060E0005B689847064B35701E68002EE0D03A4634
:1060F00021462846B047DBE7F8BD00BF909400205A
:1061000088940020B494002000B5084B89B0012287
:106110001A7005238DF80C30079B009303AB0FCB4F
:10612000FFF7C2F809B05DF804FB00BF91940020AE
:1061300000B589B003238DF80C300A4B1B88ADF8ED
:106140000E30094B5A6804929A68DB680693079BE5
:106150000093059203AB0FCBFFF7A6F8002009B020
:106160005DF804FBC09400200C95002000B589B0B8
:1061700001238DF80C300B4B1B88ADF80E3043F229
:1061800008031A68084B596804919968DB680693FC
:106190000591009203AB0FCBFFF786F8002009B002
:1061A0005DF804FBC09400200C95002000B589B078
:1061B00003AB142200211846FEF7B4F804228DF830
:1061C0000C20002200920FC8FFF76EF809B05DF8AE
:1061D00004FB000030B589B003AC14220021204636
:1061E000FEF7A0F8094B1B88ADF80E30084BDB68B2
:1061F00006930025079B8DF80C50009394E80F0040
:10620000FFF752F8284609B030BD00BFC094002007
:106210000C950020174B73B5174C1C60174B0222CE
:106220001A70FEF7B5F8164B48B11968204600F011
:10623000D5FBB0B102B0BDE8704001F04BBB1B68AC
:106240001D0BC3F30B0303B10135002443F2080611
:10625000A54208D1002300931A4603210648FFF700
:106260001FFF02B070BD306800EB0430FEF736FE51
:106270000134EDE7249500201C9500209094002027
:10628000C494002010B50B4B1B788BB90A4801F061
:1062900055FA08B101F01EFB00224FF41601064822
:1062A00001F006FA044608B101F014FB204610BDC7
:1062B0000824FBE79194002094940020F0B51F4639
:1062C00085B003230546CDE90030960868460C46A4
:1062D00002910396FFF7E2FEE0B1B4F5805F11D8BA
:1062E00001236846CDE90035CDE90246FFF7D6FE29
:1062F00080B903236846CDE90035CDE90246FFF7B2
:10630000CDFE07E03B463A46E11BE81BFFF7D6FF10
:106310000028E5D005B0F0BDF0B585B0174B01936E
:10632000174B184F184E00241C70184B394601A803
:10633000CDE902441C8000F02FFB054618B13470F3
:10634000284605B0F0BD43F2080301461B68104A19
:1063500010487B6001F09AF908B101F0BBFA002205
:106360004FF416010C4801F0A3F908B101F0B2FA9C
:106370000A4B00221A6001233370E1E7A1600F008D
:10638000089500201C95002090940020C0940020C7
:1063900009610F0068B20F00949400208C940020D3
:1063A000014B1860704700BF8894002070B54368A7
:1063B000204C0FCB84E80F002278510701D59307BA
:1063C00031D163689E072ED1A1688D072BD1E0687B
:1063D000840728D10B44184E0344B1F5304F336085
:1063E00023D843F208010968C1F56D218B421CD8FE
:1063F000124D134B2B60D107124B6B600ED5124B15
:10640000AB60124B1B78012B11D1FFF73BFF044609
:1064100010B92B6830689847204670BD93074CBF71
:106420000B4B0C4BECE70624F6E70C24F4E70824AE
:10643000F2E700BF0C950020C4940020B494002023
:1064400015620F00AD610F006D610F009094002088
:1064500031610F00D5610F002DE9F3478046002818
:1064600050D083689B074FD12A4B1B78052B4DD109
:10647000294F4568294E3B683268AD002B44934252
:10648000B94607D94FF0FF333B600C24204602B0D9
:10649000BDE8F087FFF7F6FE04460028F6D1D8F8ED
:1064A0000880DFF87CA0FDF773FF48B13B68DAF89D
:1064B00000002A46414600F081FAA0B10446E5E713
:1064C00043F20803D9F800001F682A4623464146D4
:1064D0003844FEF797FB0095434622460121DAF83F
:1064E0000000FFF7DDFDD9F800301D443368C9F81E
:1064F00000509D420CD1FDF74BFF0028C6D1FEF79E
:1065000063FBC3E70E24C1E71024BFE70824BDE7FF
:106510000924BBE7909400208C940020C4940020B0
:106520002495002070B50B4B1D6885B90A4E337851
:10653000042B0CD1094C0A4B21781A780948FEF734
:10654000E1FB10B90523337070BD2570FCE708200E
:10655000FAE700BF8C94002090940020089500205A
:106560000C950020C8940020F8B5134B1A78032A24
:10657000074603D0042A03D0082419E004221A7025
:106580000E4B1B68002BF7D1FFF77CFE044678B951
:106590000B4E7D683378AD005A19402A0AD8094855
:1065A000B9682A46184404F08BF933781D443570D5
:1065B0002046F8BD0924FBE7909400208C9400202D
:1065C00008950020C894002038B50D4C2378052B81
:1065D00014D10C4B0C4D1A682B689A420ED106232D
:1065E0002370FFF74FFE40B9084B29681B685868B5
:1065F000FEF7C2FB08B90723237038BD0820FCE76B
:10660000909400208C940020C494002024950020B5
:1066100010B5084B1B78072B0AD1074801F08EF8FC
:1066200008B101F057F9054BBDE810409B681847C9
:10663000082010BD9094002094940020B494002071
:1066400000B589B006238DF80C30079B009303AB8F
:106650000FCBFEF729FE09B05DF804FBF0B58DB055
:1066600005A8FEF77DFF089C002C3CD00B9E04F58E
:106670008053B3422BD91D4BA6F5805503EA55052F
:1066800043F208031B689C4209D86800221A00F5EF
:1066900080512B463044FFF711FE0DB0F0BD05F5DB
:1066A0008053012701A8CDE90173CDE90337FFF736
:1066B000F5FC0028F1D14FF4805301A80197CDE9F2
:1066C00002330497FFF7EAFC0028E6D1DDE7012357
:1066D000CDE90136A4084FF4805301A80393049434
:1066E000FFF7DCFCD9E72046D7E700BF00F0FFFF4B
:1066F00000B58DB005A8FEF733FF099860B1089B7F
:106700006BB943F208031B6880080022039001A8BC
:10671000CDE90123FFF7C2FC0DB05DF804FB0B9A35
:106720001344F1E700B58DB005A8FEF719FF0998ED
:1067300078B1089B83B943F208031B680393800870
:1067400003214FF47422049001A8CDE90112FFF750
:10675000A5FC0DB05DF804FB0B9A1344EEE70000B6
:1067600030B58DB005A8FEF7FBFE0898A8B10B9CCC
:1067700000F58053A34212D943F208031B689842E4
:1067800019D80E4BA4F5805203EA52035D00421B58
:1067900005F580516019FFF791FD0DB030BD8008FF
:1067A00003224FF48053049001A8CDE90123039400
:1067B000FFF774FCF1E70E20EFE700BF00F0FFFFEA
:1067C00029DF704728DF704737B54B68CA680093E8
:1067D0000C46054B53F822504B6914F80C1B02462B
:1067E0002046A84703B030BD2895002038B5184C86
:1067F0002378182202FB03431A795D69012A03D02A
:10680000032A19D00F2038BD124A996910689A6876
:10681000DB680003121AB2F5805F1D44014438BFE3
:106820009208284428BF4FF48062FFF7C9FF002870
:10683000E9D10123A370E6E74FF080531869054BB7
:1068400080B2B5FBF0F518682844FFF7BBFFEEE710
:10685000389500203096002070B5134D6C780A2CC6
:106860001FD02E783444E4B2092C84BF0A3CE4B231
:10687000182606FB0454A261207103C9A360049B7F
:10688000E360AB7804F1100282E8030023B100203A
:106890006B7801336B7070BDFFF7A8FF1128F7D13B
:1068A000F5E70420F7E700BF38950020F8B5274941
:1068B0008B780C462BB1002602288E7002D003285C
:1068C0003AD0F8BD0D78224A182101FB0541136822
:1068D00089680133B1EB033F13601BD863781660FE
:1068E000013B63706B1CDBB218270426092B17FBD6
:1068F000056188BFA5F10903214400202370FFF73B
:1069000063FF07FB05430022C3E904621A719A6022
:106910009A61DA606378002BD3D0A378002BD0D1B2
:10692000FFF764FF0028CCD01128CAD021781823A3
:1069300003FB0141043105E00B78182202FB03112F
:1069400004310D20BDE8F840FFF73EBF3895002028
:10695000309600200C4B00221A600C4B0A201A8043
:106960009A70042101381A719A60C3E904129A617D
:10697000DA6003F11803F5D1054B1860054BC3E944
:106980000000C3E9020070473096002038950020CF
:106990002C96002028950020064A1368042B07D067
:1069A0000B60591C1160044A016842F8231000234F
:1069B000184670472C9600202895002013B5CC1857
:1069C0000C43A40708D1009313460A460146012050
:1069D000FFF742FF02B010BD1020FBE707B5002211
:1069E0000B46009201460320FFF736FF03B05DF827
:1069F00004FBA8DF7047AADF7047ADDF7047AEDF4A
:106A00007047B0DF704762DF704700002DE9F04744
:106A10000F4694B00546002800F0F980002900F0E8
:106A2000F6804B68002B00F0F2804FF6FF73038076
:106A3000784B04AA03F1100C1646186859681446DE
:106A400003C4083363452246F7D141F230530DF1B8
:106A50000A013046ADF80830FFF7D5FF044600289C
:106A600040F0D1802A1D02A90120FFF7C2FF044691
:106A7000002840F0C8809DF80A30AB7101461C2206
:106A80000DA8FDF74FFC9DF834300E9443F004033D
:106A90008DF8343001AEAB798DF80E30214641F2DD
:106AA000325303223046CDE91044CDE91244ADF80B
:106AB0000C30FDF737FC9DF8063023F01F0343F040
:106AC0000303214614224FF4885A08A88DF8063093
:106AD000ADF804A00DF10C08FDF724FC4FF01409EB
:106AE00005F1080308AA0DA9A8880A940C94CDE919
:106AF0000886ADF82C90FFF77EFF0446002840F092
:106B0000828001461C220DA8FDF70CFC9DF8343054
:106B10000E9423F0180343F018038DF83430AB794A
:106B20008DF80E30214641F2315303223046CDE933
:106B30001044CDE91244ADF80C30FDF7F3FB9DF89D
:106B40000630ADF804A023F01F0343F013032146E1
:106B50004A4608A88DF80630FDF7E4FB1723ADF888
:106B60002C3008AA05F110030DA9A8880A940C94EA
:106B7000CDE90886FFF73FFF0446002843D10146D0
:106B80001C220DA8FDF7CEFB9DF834300E9443F087
:106B900002038DF83430AB798DF80E30214641F286
:106BA000345303223046CDE91044CDE91244ADF808
:106BB0000C30FDF7B7FB1123ADF804309DF806301B
:106BC00023F01F0343F0030321464A4608A88DF82B
:106BD0000630FDF7A7FB02230A93ADF82C3008AA74
:106BE00005F120030DA9A8880C97CDE90886FFF7C9
:106BF00002FF044638B97B68AB62BB6803B1EB6245
:106C0000054B01221A70204614B0BDE8F0870E240F
:106C1000F9E700BF6CB20F003496002070B505464E
:106C200086B070B302884FF6FF739A422BD0174B91
:106C30001B7843B3164C1022080AE170207121FA28
:106C400002F0090E072301266071A17102A800213C
:106C50006370ADF806302270A670FDF763FB2B8AD7
:106C6000ADF808300023ADF80C3002A90DF1060391
:106C700028888DF80A60CDE90434FFF7C0FE06B01D
:106C800070BD0E20FBE70820F9E700BF3496002016
:106C90003596002030B5054687B060B302884FF6C0
:106CA000FF739A4229D0164B1B7833B3154C11232E
:106CB00023700B0A6170A3700B0C090EE370217135
:106CC00005230021102202A8ADF80630FDF72AFBAB
:106CD0002B8AADF8083001238DF80A300023ADF877
:106CE0000C3002A90DF106032888CDE90434FFF722
:106CF00086FE07B030BD0E20FBE70820F9E700BF95
:106D0000349600203596002030B5044687B038B35D
:106D100000884FF6FF73984224D0134B1B780BB3B7
:106D2000124D102369700321ADF80610AA700021DE
:106D30001A4602A82B70FDF7F5FA238AADF8083041
:106D400001238DF80A300023ADF80C3002A90DF1B3
:106D500006032088CDE90435FFF751FE07B030BDAA
:106D60000E20FBE70820F9E7349600203596002036
:106D700070B50D4688B0044640B139B1826A2AB177
:106D80000B88112B59D003D8102B43D008B070BDFD
:106D9000502B42D0512BF9D18B79022BF6D10A8995
:106DA000038A9A42F2D18B7B043B022BEED99DF8E9
:106DB000163043F001038DF816300B8AADF8183009
:106DC0004B8AADF81A30022601F114030822002183
:106DD00001A807938DF81060FDF7A4FA01AAA18A13
:106DE00020880196CDF808D0FFF707FE034638B398
:106DF000E36A03B1984740F2FD1304A92088ADF877
:106E00001430FFF7FEFD0028C0D0E36A002BBDD090
:106E10009847BBE78B882380B8E7C98803899942E4
:106E2000B4D108238DF81030123535F8023C8DF8B6
:106E30001830059504A99047A8E74FF6FF73EAE7D5
:106E40009DF800202088D207D5D504A9ADF81430CC
:106E5000FFF7D7FD0028D8D1297D4B1E072B41D83D
:106E6000DFE803F0041A2327292B3E2D00238DF899
:106E700004306B8A012B05D8062201212046FFF73A
:106E800043FFC0E7012315358DF80C300295A36A46
:106E900001A92046984779E76A8A01239A428DF82A
:106EA0000430F0D806220221E8E702238DF80430EE
:106EB000EDE70323FAE70423F8E70523F6E76B8AF7
:106EC000022B02D803220821D8E7AA7D6B7D43EA72
:106ED0000223002BADF808300CBF07230623E5E79B
:106EE0000923E3E70322C9E7A8DF7047AADF704759
:106EF0002DE9F04180468EB015461F460E4611B969
:106F0000084600F0E7FC15B9284600F0E3FC1C2217
:106F10000DEB02000021FDF705FA9DF81C30ADF8DD
:106F20000480002443F002038DF81C302146012325
:106F3000032268468DF806300894CDE90A44CDE96D
:106F40000C44FDF7EFF93B788DF800307B788DF835
:106F500001309DF8023023F01F0343F00203214665
:106F6000142202A88DF80230FDF7DCF90A48CDF8AA
:106F70000CD001AB029302AA149B0088ADF810500C
:106F800007A9ADF81240ADF814500696FFF7AEFF12
:106F90000EB0BDE8F08100BF7496002030B587B018
:106FA00041F60A0304465C4AADF80C30012003A9FF
:106FB0008DF80E00FFF798FF0546002849D122887A
:106FC000002A49D1228952B1544B0093E16804F15F
:106FD0003C0342F62420FFF78BFF002847D1228A8A
:106FE00052B14F4B0093616904F13C0342F62520F6
:106FF000FFF77EFF00283AD1228B52B1494B009314
:10700000E16904F13C0342F62720FFF771FF0028F5
:107010002DD1228C4AB1444B0093616A04F13C03A8
:1070200042F62620FFF764FF08BB228D4AB13F4B92
:107030000093E16A04F13C0342F62820FFF758FF71
:10704000A8B9236BABB9616B002938D1A36B002BB6
:1070500042D1284607B030BD354B0093616804F13A
:107060003C0342F62920FFF743FF0028AAD005463B
:10707000EFE71A688DF810201A68120A8DF81120AF
:107080005A888DF81220DA788DF813205A688DF816
:1070900014209B688DF815301A0A1B0C8DF81730D8
:1070A000244B8DF816200093082204F13C0304A918
:1070B00042F62320FFF71CFF0028C4D0D7E71E4B61
:1070C0000A790093096804F13C0342F62A20FFF78D
:1070D0000FFF0028BAD0CAE71A788DF810205A8816
:1070E0008DF81120120A8DF812209A888DF813203D
:1070F000120A8DF81420DB888DF815301B0A8DF8E4
:1071000016300E4B0093072204F13C0304A942F60B
:107110005020FFF7EDFEAAE7749600205496002059
:107120006C960020449600203C9600207696002025
:107130004C9600207E960020649600205C960020ED
:10714000094A537891780133DBB2994208BF002392
:10715000117899421FBF03705078182303FB002059
:1071600014BF04300020704788960020082910B50D
:10717000044602D0002000F0ADFBD4E90030BDE8A9
:107180001040184773B5054600240DF107000E4660
:107190008DF8074000F0ACFB0DF10600FFF7D0FFC3
:1071A00090B10670094B9DF8062045605A709DF815
:1071B000070000F0C1FB24B9054B4FF48012C3F85F
:1071C0000021204602B070BD0424F0E7889600201C
:1071D00000E100E0204B21491A682F2300BF00BFC7
:1071E00000BF00BF00BF00BF00BF00BF8A422FD05A
:1071F00000BF00BF00BF00BF00BF00BF00BF00BF97
:1072000000BF00BF00BF00BF00BF00BF00BF00BF86
:1072100000BF00BF00BF00BF00BF00BF00BF00BF76
:1072200000BF00BF00BF00BF00BF00BF00BF00BF66
:1072300000BF00BF00BF00BF00BF00BF00BF00BF56
:1072400000BF00BF00BF00BF00BF00BF00BF00BF46
:10725000013BC3D1704700BF6C8000200024F400C4
:107260000C4B0D484FF4003210B5C3F880200124B8
:107270004FF48033C0F84833C0F808334460FFF758
:10728000A9FF064B846000201860FFF7A3FF044BA2
:10729000187010BD00E100E000100140A49700202C
:1072A000959700202DE9F3412549264B0025C1F88B
:1072B0004051C1F84451C1F84851C1F84C51C1F88E
:1072C0000051C1F804511B68002B34D0D1F804459B
:1072D0001D49DFF888800968641A24F07F442F462E
:1072E0001A68A24212D8A41A15441A7CDE6962B147
:1072F0005A691F7400929B690193424608216846AF
:1073000000F050FA08B100F0E5FABEB90F4A104B90
:1073100011781B788B4205D10133DBB2022B08BFF9
:107320000023137012780B4B43F822500A4B4FF492
:107330008012C3F8002102B0BDE8F0813346CFE7E8
:1073400000100140A8970020A4970020A1970020DA
:10735000A09700209897002000E100E06D710F00D9
:107360002DE9F04FA64AA74913780978A64C99420F
:1073700085B03CD00133DBB2022B08BF0023137071
:10738000A2491278A24B0F6853F822003B1823F051
:107390007F4300220B60236815461646944613B9B6
:1073A00042B1236006E0196881420ED902B1236020
:1073B000091A1960012623680293DFF85C92002302
:1073C0000193BDB9DFF85CA268E0401A0E44D968A9
:1073D000C3F800C0D3F81CE031B1BA1922F07F42E3
:1073E000C3E90121DD611D4601227346D7E700256F
:1073F0002E46E0E72846ED69844A43681268DFF8C4
:1074000028E2D0F808C0991A21F07F41714500F2B6
:10741000A580614401600122027422680023C0E952
:107420000133C361002A40F0A3802060C9E75A1CE1
:107430009AF80210D2B291428AF8002004BF0022CA
:107440008AF80020182202FB03A31A799868022AFE
:107450001CD0032A12D0012A20D1027CF2B9D968AB
:1074600041601F6987605F69C7609B698361694B81
:107470001B78002B18BF11464160BDE7002223682E
:107480001146002B66D14AB1236007E0226893467B
:107490009046BBF1000F57D1002303749AF80030D7
:1074A0009AF801209A42C2D1019A236822B9029A1D
:1074B0009A4201D1002E41D0002B7BD0D3F800900E
:1074C000554C524BD4F804651868544F351A3B7824
:1074D00025F07F4503359BB94FF48033C4F844331E
:1074E000C4F804334E4B4FF400324FF00108C3F898
:1074F00080211A60C4F80080FFF76CFE87F80080D6
:10750000A9452CBF4844401920F07F40C4F84005ED
:10751000D4F804359B1B23F07F43801B033320F0FA
:107520007F4083420AD9D4F80435C4F84035FFF7C8
:1075300051FE3B4B4FF40032C3F80021354B002283
:107540001A7005B0BDE8F08F584536D0D846DBF844
:107550001CB09EE719740122DB6992E7D31A23F06D
:107560007F43634534BFACEB03030023036052E762
:107570000168136899421BD8591A1160C26154E717
:10758000A1EB0C01D3F81CC01A46BCF1000F0AD0C5
:107590006346D3F800C08C45F2D3ACEB010CC3F8C2
:1075A00000C09C4613460160C0F81CC0D86108E7C3
:1075B0001346EEE7FFF754FEC0E740450FD1D1690F
:1075C000216061B9DFF844E003920123C9F8083073
:1075D000CEF800100F490B70FFF7FCFD039ADBF8A3
:1075E0001C10DBF80030C8F81C1011B10F683B44C8
:1075F0000B60019923689A4218BF012101914BE762
:10760000A0970020A1970020A8970020A497002011
:107610009897002094970020001001409597002033
:1076200000E100E088960020FEFF7F0008B5FFF72C
:1076300017FE104B00200B2218809A700E4B18601A
:107640000E4B18700E4B18700E4B4FF48012E02149
:10765000C3F8802183F814131A6002F18042A2F566
:107660006F22C2F8080583F81113074BD2F80425DE
:107670001A6008BD88960020A8970020A0970020D7
:10768000A197002000E100E0A4970020074B9B7821
:107690004BB132B128B10368187C20B959745A61D2
:1076A0007047072070470820704700BF8896002069
:1076B0002DE9F7431E4FBB7805460E469046A3B30F
:1076C00098B304292FD943697BB3437C0024012B51
:1076D0000DF107000CBF8946A1468DF8074000F068
:1076E00007F90DF10600FFF72BFDD0B10123037060
:1076F000104B4560D3F80435C0E90498C0E9023660
:107700009DF806307B709DF8070000F015F924B94C
:10771000094B4FF48012C3F80021204603B0BDE8A6
:10772000F0830424EFE70724F7E70824F5E700BF18
:10773000889600200010014000E100E0064A92789F
:107740003AB130B1426922B1002202740221FFF73E
:1077500019BD0820704700BF889600204B1C30B52B
:10776000DB00044612F003009BB20DD1074D2A60E6
:107770001A44074B1A60074B1870074B1870074BD9
:107780001C80074B198030BD0720FCE7B497002010
:10779000B0970020AC970020BC970020B89700203D
:1077A000BA9700202DE9F3472B4D2B888B420646D4
:1077B0000C4617464CD34FF000080DF107008DF82A
:1077C000078000F095F8254B254A18781178CBB240
:1077D000244909888B4238BF0133C0B238BF5FFAF1
:1077E00083F840452ED092F800801378DBB299429E
:1077F00086BF0133DBB2002313709DF8070000F051
:107800009BF84FF6FF73984524D0DFF860A0DAF8B4
:1078100000304FEAC80903EB090243F83870A6B1FB
:107820009CB1114B28881B68224608FB003031466A
:1078300003F046F8DAF800304B4400209C8002B098
:10784000BDE8F0874FF6FF78D7E700209080F6E795
:107850000920F4E70420F2E7B8970020BC97002045
:10786000AC970020BA970020B0970020B497002072
:10787000F8B5124C124D264622782B789A4200D148
:10788000F8BD23780F48104A078812680F48DBB20A
:1078900019B202EBC10C006852F83120BCF8041098
:1078A00003FB070090470A4A23781288DBB29A420A
:1078B00086BF0133DBB200233370DDE7BC970020C5
:1078C000AC970020B8970020B4970020B097002014
:1078D000BA9700201FB50021CDE9021001AA44F299
:1078E0000100ADF80410FCF749FD05B05DF804FB9C
:1078F00070B5EFF3108672B60C4A946801239CB9F8
:1079000093600B4B0B4DD3F8801029401160C3F8E6
:107910008050D3F8841051604FF0FF32C3F88420B8
:10792000047006B962B670BD0370FAE748C700205C
:1079300000E100E0FC06FFBD10B5084B9A685AB1A3
:1079400050B9EFF3108172B6054A1C6814605C6888
:107950005460986001B962B610BD00BF48C70020EE
:1079600000E100E02AB113880144884204D118469E
:1079700070474FF6FF73F7E75BBA10F8012B9BB225
:107980005A40C2F30313534083EA03331BB25A0134
:1079900002F4FF5253409BB2E7E70000064B074A50
:1079A00000201870064B1A600822C3E90120C3E9C1
:1079B0000300C3E905007047BD970020C097002071
:1079C000A0AA00200020704730B5F9B1124B5C68C6
:1079D00000220A60E4B1B0F5167F1BD8D8681D6894
:1079E0000130013CD86018695C604FF4177404FBE7
:1079F00000540C60012101FA00F49969013000F093
:107A00000700214318619961104630BD0E20FCE744
:107A10000420FAE70C20F8E7A0AA0020F0B51C4BE0
:107A2000996899B35D691E686C1A04F007042246D0
:107A30004FF4177707FB026C604511D1012000FA63
:107A400002F598696840986100205E68D3F818C014
:107A50004FF0010E724400250E4402F007020AE0C6
:107A6000013202F007029542E4D11020EDE749B15E
:107A70000139144601250EFA04F414EA0C0FA6EBA2
:107A80000107F4D00DB1C3E90171F0BD0420FCE79A
:107A9000A0AA0020064A13691268013B4FF417712F
:107AA00003F0070301FB0323C3F8580200207047CB
:107AB000A0AA002030B5C0B1B9B10E4BDA68B2B19E
:107AC000013ADA609A681D6801329A605A694FF487
:107AD000177404FB025404600132D4F858020860A1
:107AE00002F007025A61002030BD0E20FCE704209E
:107AF000FAE700BFA0AA00203FB40C49086890B183
:107B00000B4B1C687CB10B4A1568CDE90250002371
:107B10008DF804300B60136004AB13E907002346B3
:107B200004B030BC184704B030BC7047C4AA002071
:107B3000C8AA0020D4AA0020DC2810B509D0DD286E
:107B400010D0C02816D1FFF7D7FF0E4B0E4A1A608F
:107B500010BD0E4A0E4B19681368581C1060C022E5
:107B6000CA54F2E7094A0A4B19681368581C106096
:107B7000DB22F5E7064B054A196813685C1C1460A4
:107B8000C854E2E778800020A97B0F00C4AA002037
:107B9000D4AA0020C02802BF014B024A1A607047D5
:107BA00078800020A97B0F00C02810B409D0DB2802
:107BB0000BD0094B094A196813685C1C1460C8543F
:107BC00006E05DF8044BFFF797BF054B054A1A60C6
:107BD0005DF8044B704700BFD4AA0020C4AA00205F
:107BE00078800020397B0F0007B501228DF807004F
:107BF0000DF10701002001F0C7FF00280CBF042091
:107C0000002003B05DF804FB10B5064A064C12686C
:107C10002368D05CFFF7E8FF10B9236801332360C5
:107C200010BD00BFD8AA0020CCAA002008B5C020F3
:107C3000FFF7DAFF28B9034B1B6813B9024B034A5D
:107C40001A6008BDCCAA00207C800020097C0F00AF
:107C500008B5DB20FFF7C8FF10B9024B024A1A60D3
:107C600008BD00BF7C8000206D7C0F0010B50C4A61
:107C70000C4C12682368D35CC02B03D0DB2B0DD0D7
:107C8000042010BDDC20FFF7AFFF0028F9D12368E6
:107C9000054A01332360054B1A60F2E7DD20F2E765
:107CA000D8AA0020CCAA0020097C0F007C800020EC
:107CB0007FB5164C164D174E002001F047FF18B344
:107CC00022689AB12968336899420FD2012201A92A
:107CD000002001F045FF10B94FF0FF3001E09DF8A2
:107CE00004000D4BC0B21B689847E5E70B4B1B68BF
:107CF00053B10292064A0221126803928DF80410D1
:107D000004AA12E90700984704B070BDD4AA002065
:107D1000C4AA0020C0AA002078800020C8AA0020A1
:107D2000014B186000207047C8AA0020034B1A7846
:107D30000AB901221A700020704700BFBCAA0020B7
:107D4000014B002018707047BCAA00202DE9F04FAD
:107D500085B000284FD0294F3B78012B07D0022B4C
:107D60000CBF04250825284605B0BDE8F08F244C3B
:107D7000244A254E254DDFF8A0A0DFF8A0B0116001
:107D80000023236002233B70214B30602B6091461F
:107D900098462268D9F800309A4215D3C5F8008079
:107DA000FFF744FF054608BB1A4B1B6801223A70D7
:107DB000E3B18DF80420326802922268039204AA8B
:107DC00012E907009847CEE7336822689A5CC02A18
:107DD00003D022689B5CDB2B04D12B68534508BF82
:107DE000C5F800B02B689847042801D10025BAE7F0
:107DF0001128CED1FAE71025B5E700BFBCAA0020B4
:107E0000CCAA0020D0AA0020D8AA00207C80002084
:107E10002D7C0F00C8AA0020097C0F00517C0F00A8
:107E2000054B064A1860064B1960064B0020186087
:107E3000054B1A60704700BFD4AA0020957B0F0045
:107E4000C0AA0020C4AA002078800020064B074862
:107E50001B68DB00DBB20022037004215B4242702E
:107E60008270C370FFF772BF04AB0020DCAA002051
:107E700070B52D4C2D4E024625462378012B14D08B
:107E800013B1022B20D070BD002AFCD12848FFF787
:107E900055FC08B1FFF71EFD264B1B68002BF2D0E6
:107EA000254ABDE8704010781847012AEBD13168A7
:107EB000224B06311868FFF749FF08B1FFF70AFDAA
:107EC00002232B700022D8E7022A19D0032A0ED0F1
:107ED000002AD8D11A4B16481A6041F67F21FFF7C5
:107EE000E7FB0028CFD0BDE87040FFF7F3BC154A90
:107EF0001368013303F00703136000232370E1E7E5
:107F00000F4A1368052B0AD001331360074B196819
:107F10000A4B06311868BDE87040FFF717BF064BE3
:107F200001221A70E9E700BF28AB00201CAB00203B
:107F3000E0AA002018AB002020AB002030AB0020CE
:107F400024AB002008AB0020F0B585B004AB03E9FA
:107F500007009DF80400032878D8DFE800F0080245
:107F6000A7AA012005B0BDE8F040FFF781BF039E3E
:107F7000564C032E40F28680029D6B7813F00F0260
:107F800069D00E2A7ED1042E59D02A78500656D5B3
:107F9000110654D51A44AB781A44EB781A4412F0FF
:107FA000FF024CD1B71E39462846FFF7DBFCEB1920
:107FB0005A78EB5D43EA0223984240D144492A783B
:107FC0000B6802F00702D8B282422BD1013303F0D2
:107FD00007030B60FFF73AFF3E4B012230461A7051
:107FE000FFF758FD08B1FFF775FC38494FF41670DC
:107FF000FFF7EAFC002862D0042802D00020FFF737
:1080000069FC35480521FFF70BFF08B1FFF762FC5B
:10801000324B1B68002B56D04FF0000005B0BDE876
:10802000F04018474FF416712068FFF7F9FE08B1C9
:10803000FFF750FC05B0BDE8F040FFF707BF206830
:108040004FF41671FFF7ECFE00283CD005B0BDE8F8
:10805000F040FFF73FBC2978AA780B441344EA7834
:10806000134413F0FF030DD11D4A12680132C1F30E
:10807000C20102F00702914204D11A4A0320137090
:10808000FFF7F6FE25681DB14FF416712846D9E7B3
:108090000E494FF41670FFF797FC60B1042802D028
:1080A0002846FFF717FC0C480521CBE705210A48B5
:1080B000C8E70320CAE720684FF41671C2E72068BA
:1080C0004FF416719FE705B0F0BD00BF2CAB002048
:1080D00004AB002000AB00200CAB002014AB002050
:1080E00008AB002020AB00200220FFF7C1BE00003B
:1080F000074B10B5044618600648FFF711FE08B19B
:10810000FFF7E8FB002C0CBF0E20002010BD00BFC5
:1081100014AB0020497F0F00184A1948002310B5FE
:108120001360184A1360184A1360184A1370184AEB
:108130001370184B184A01211960184B1960184B1D
:108140001970FFF7A3FA08B1032010BDFFF726FC52
:108150000028FAD1FFF7EAFD0028F6D1114C4FF4C0
:1081600016702146FFF730FC0028EDD120684FF44F
:108170001671BDE81040FFF753BE00BF30AB0020C2
:108180007CB20F001CAB002024AB002000AB002011
:1081900028AB002004AB0020E9800F0008AB0020D2
:1081A00020AB00202CAB00200C4A08B50023136044
:1081B0000B4A1360FFF706FC08B1FFF78BFBFFF7D4
:1081C000BFFD08B1FFF786FB0648FFF7B7FA0428A2
:1081D00002D10020FFF77EFB002008BD18AB002075
:1081E00014AB0020E0AA002037B50D46044698B134
:1081F00091B10A4B19780022019259B101A91A7064
:10820000FFF758FC019B063B2B8023680433236057
:1082100003B030BD0420FBE70E20F9E700AB0020DF
:108220000438FFF7FBBB0000004870478080002047
:10823000044B054A1878054B002814BF1046184611
:10824000704700BF34AB0020E4B20F0082B20F00D1
:10825000074B187020B1074B52229A720022DA7233
:108260004FF0805304495A6E04481B6E02F050BB15
:1082700034AB00208080002042B30F00B8AB002058
:1082800010B570B9134B14481968022202F018FB9C
:108290000120431C114A5B0043F4407313801046D5
:1082A00010BD052814D80B4B53F82040204602F08F
:1082B0004FFBC0B21F28094A28BF1F200023D9B294
:1082C000814202F10202E4D2E15C11800133F6E75F
:1082D0000020E5E79480002038AB002036AB00207A
:1082E0004DDF70474EDF70474FDF704750DF7047FC
:1082F00043DF704712DF70471FB5204B402283F8E1
:108300002723044600230DF107008DF80730FFF7FF
:10831000F1FF9DF80730F3B10120FFF7E3FF0120E3
:10832000FFF7DEFF0120FFF7DFFF02A8FFF7DEFF08
:10833000029BDA0702D5002000F04CFD029B9B0750
:1083400002D5022000F046FD2046FFF781FF02F033
:10835000EDF804B010BD01A88DF80430FCF72CFD39
:10836000074B039303A8FCF74FFDFCF753FD4FF0B9
:108370008043D3F838340293DAE700BF00E100E02D
:10838000D58D0F0010B5114BD3F80025EAB10024AC
:10839000C3F80445D3F804250D4A8021C2F884109F
:1083A000D3F80023C3F80823C3F80045D3F80035F9
:1083B000FFF79EFF2046FFF795FF2046FFF790FF4F
:1083C0002046BDE81040FFF78FBF10BD007002408F
:1083D00000E100E00120FCF759BB0220FCF756BB8E
:1083E000F0B5164C87B020680F466168164603AAA0
:1083F00003C213491D460868237A4968137001AA0D
:10840000104B009303C203A802F0A2FA03A902468C
:10841000384602F055FA01A802F09AFA01A902467C
:10842000304602F04DFA684602F092FA694602467A
:10843000284602F045FA07B0F0BD00BF4DB30F006B
:108440003AB30F00312E30000120704710B51C46A2
:108450000B781E2B06D000232022052101F090FD71
:10846000204610BD0024FBE7F8B5069E14460D46D5
:108470003246002118461F46FBF754FF6CB10A4BE9
:108480001B68DB0700D500BE4FF0FF300AE028462E
:1084900000F08AF8013504F50074B44207EB0401DA
:1084A000F5D32046F8BD00BFF0ED00E02DE9F04126
:1084B000069E0C4F0D4698460024B44208EB04017A
:1084C0000ED23B460022284600F03CF9002803DC8F
:1084D00006D03046BDE8F081013504F50074ECE7C4
:1084E0002046F7E7CCAB002030B5104D2B6889B0A3
:1084F000CBB16A68934216D8062003ACFCF7C6FAE3
:10850000142200212046FBF70DFF00238DF80C30CC
:10851000ADF80E302B681B020693079B009394E87E
:108520000F00FCF7C1FE09B030BD00BFCCAB00208E
:108530004FF4FA530B604FF400731380704701201F
:108540007047000013B5104C2368BBB943F2080311
:108550001868FCF78BFEA0B101A8FDF719F8019B84
:108560009B6813F0FF0F1CBF23F0FF0303F580731C
:108570005A1E033288BF4FF407232360206802B0DD
:1085800010BD4FF48073F8E7F0AC002010B5002365
:10859000934200DB10BD0C781CB10131C45401338F
:1085A000F6E72024FAE700002DE9F0410C460546E5
:1085B0004FF4007200212046FBF7B4FE65B93E225D
:1085C0005A49204602F07CF9552384F8FE31AA234B
:1085D00084F8FF31BDE8F081402D32D86B1E1F2B8F
:1085E00088BFA5F121030BB31D02C3EBC35305F5EF
:1085F000807604EB4324032D05F1010712D9FFF720
:10860000A1FFC0F316200330A8420BD3FFF79AFF57
:10861000C0F316200330A84214BFBBB24FF6FF735D
:1086200024F81530BE423D46E5D1D3E7F82222704A
:1086300004F109012246FF209142D5D002F8010F32
:10864000FAE7442D3AD8413D07D120460B2238495C
:10865000FFF79CFF2823E3722034364B2E010027BE
:1086600003EB05256FF04708022EB3DC0B222946E9
:108670002046FFF78BFF50236FF003026FF0560187
:108680006374E3746376B31C677384F80E80E173DC
:108690002274A2742775677584F81680E1752276B6
:1086A0006383E86830B102F053F9E06101362034A9
:1086B0001035D9E7FFF746FF4000F6E7A5F1450280
:1086C000012A0DD81B4B03EB0213DD68284602F08C
:1086D0003FF9294602462046BDE8F04102F0F0B8D5
:1086E00005F219263602B6F52D2FBFF473AF124BE3
:1086F000236003F1144303F52C1303F60233636084
:10870000473D0E4BC4F8FC316561FFF71BFF4FF48A
:108710000053000A4FF48072A360094BA061E66029
:108720002261E361314604F12000D5E756B30F0022
:1087300081B30F0004B40F005546320A306FB10AFE
:108740004028A5AD38B51D460A68354B9A420C46FF
:1087500062D103F114434A6803F52C1303F6023384
:108760009A4259D1D1F8FC212E4B9A4254D18B68B0
:108770009A0451D5C9692C4A91424DD1DB071DD4C9
:108780002369B3F5807F19D8E26812F0FF0F15D185
:10879000B2F5183F12D31344B3F52D2F0ED8234B47
:1087A0001A7822B1002205201A70FCF76FF9012314
:1087B0002269E06804F12001FCF724FA15B94FF4AE
:1087C000007038BDA369002BF9D02A68934207D006
:1087D00040F6D3018B4200D80AB14FF0FF332B6033
:1087E000636940F6D3029342E9D803F0070105EB31
:1087F000D30301228A40197AD2B2114204D16868A7
:108800000A4301301A726860D5E900329A42D6D321
:108810000120FCF7D9F9D2E74FF0FF30D1E700BFD4
:108820005546320A306FB10A4028A5ADAC80002011
:10883000064B1868082802D104331B6823B9A0F13D
:108840000D03584258417047012070473001001015
:1088500042DF704743DF704744DF704712DF7047E5
:1088600007B500230DF107008DF80730FFF7F6FF7D
:108870009DF80700003018BF012003B05DF804FB2D
:10888000064B93F8C0202AB9054B1B68DB0704D5BB
:1088900000BE7047002283F8C0207047F4AC00206F
:1088A000F0ED00E007B5FFF7DBFF48B101A8FFF7E7
:1088B000D3FF0198003018BF012003B05DF804FB1E
:1088C0004FF08043D3F80C0400F00110A0F1011325
:1088D00058425841F1E700000D4B93F8C020014683
:1088E00062B10C4A5268C2F308021AB101220A4866
:1088F00000F024BD93F8C020002AFBD1012283F8A8
:10890000C0200A60BFF36F8FBFF34F8F704700BF67
:10891000F4AC002000ED00E0D9880F00F8B50F4955
:108920000F4E00F59473182551F823404543142346
:1089300003FB00137259C3F80027E4B2C3F80447DD
:10894000084B03EB8000FFF7C7FF735977192344E7
:108950007351FB881C44A4B2FC80F8BD0070024037
:10896000F4AC00202870024010B4104B182101FB19
:1089700000314A8A0B8ACC689B1A0A7D9BB29342CB
:1089800028BF13461422424302F1804202F51C32F2
:10899000C2F80046C2F804362344CB60044B5DF8AD
:1089A000044B03EB8000FFF797BF00BFF4AC00203F
:1089B0000470024070470000014B80225A607047EB
:1089C00000E100E0024B8022C3F88420704700BF22
:1089D00000E100E0074BD3F80014D3F800240A4369
:1089E000C3F800240022C3F858214FF48002C3F8D2
:1089F00004237047007002407047000010B588786B
:108A0000097900F07F0318240C22C0095C4302FBA3
:108A10000044114A22441172012202FA03F40F4960
:108A200078B90C3302FA03F3C1F80433D1F81435E2
:108A30002343C1F81435BFF36F8FBFF34F8F01206D
:108A400010BD023302FA03F3C1F80433D1F8103534
:108A50002343C1F81035EEE7F4AC0020007002406B
:108A6000F7B51D4601F07F001823CE091B4C0F46B9
:108A700003FB00F10C2303FB0613E118E250002373
:108A80008D80CB8078B975B91548FFF725FFFFF7C2
:108A9000F7FE00952B462A463946284600F002FC90
:108AA000012003B0F0BDAEB9182303FB0044637A84
:108AB00013B1FFF733FFF3E70A4B30B90122DA6451
:108AC000BFF36F8FBFF34F8FEAE700F5947043F861
:108AD0002060F5E7FFF748FFE2E700BFF4AC0020B5
:108AE000507002400070024011F07F0F064B0BBF28
:108AF000012241F480715A65C3F81815BFF36F8FD6
:108B0000BFF34F8F704700BF007002404B060AD082
:108B1000054BC3F8181541F48071C3F80C15BFF369
:108B20006F8FBFF34F8F70470070024010B5002267
:108B30001146930003F1804303F51C330132082AE8
:108B400059609962F5D1064B064C5962C42299646A
:108B500020460021FBF7E6FB40232375237210BD5E
:108B600000700240F4AC00202DE9F04F944B954A80
:108B7000D3F80003002385B01C4601251E4605FAE4
:108B800003F1084209D052F8237037B10C4342F880
:108B90002360BFF36F8FBFF34F8F0133192BEED1DB
:108BA000E10706D5FFF7C2FF01221146002000F0C1
:108BB0004DFBA20204D501220321002000F046FB58
:108BC000630217D57E4ED6F8005405F44073EF05C6
:108BD000C6F8003407D501220421002000F036FB3E
:108BE0000123C6F82C35AD0504D50122052100204E
:108BF00000F02CFB744B23400BB1FFF741FE200229
:108C00002BD56F4BD3F88014C9B28DF80810D3F868
:108C10008424D2B28DF80920D3F888048DF80A0094
:108C2000D3F88C048DF80B00D3F890048DF80C0069
:108C3000D3F894048DF80D00D3F898048DF80E0045
:108C4000D3F89C348DF80F30490601D1052A04D0A1
:108C5000012202A9002000F00CFB5C4EDFF860A1AD
:108C6000B046002537464FF001094FF0140B05F1CF
:108C70000C0309FA03F32342E9B21AD00BFB05A354
:108C80000020D3F80827182303FB0573D2B25872CB
:108C900098F808C0944576D1DB88B8F804209A4249
:108CA00071D9002D6AD1CAF84C90BFF36F8FBFF312
:108CB0004F8F0135082D08F11808D8D1444B2340B7
:108CC000002B58D03E4BD3F86C84C3F86C84BFF3B0
:108CD0006F8FBFF34F8F14F4806407D0D3F88044B4
:108CE000D3F880341B06C4F3C0145AD54FF0000AE1
:108CF000DFF8D89000254FF0010B0BFA05F313EACB
:108D0000080FE8B201D1A5B99CB12D4B142202FB8A
:108D10000533D3F80426182303FB0573598A0A4444
:108D200092B25A825A8AB9F8101091423CD9FFF790
:108D30001BFE0135082D09F11809DED1002401259B
:108D40004FF0180904F1100305FA03F313EA080FB2
:108D5000E0B203D154B9BAF1000F07D009FB047394
:108D6000B188DA88914229D9FFF7D8FD0134082C5F
:108D700006F11806E6D105B0BDE8F08F05F594734D
:108D80004AF8230091E7182303FB0573DA88A8F853
:108D90000420DA88CDF800900023184600F082FA0B
:108DA00087E74FF0010AA3E75A8ACDF800B0002305
:108DB00040F08001184600F075FABAE75D72D5E719
:108DC0000070024000710240FCFB1F00F4AC002068
:108DD00000040001012813B5044600F0A18000281A
:108DE0004FD0022840F09480624BD3F80024120543
:108DF000FBD54FF40062C3F80024BFF36F8FBFF3BD
:108E00004F8F5D4B1B68082B09D15C4B5C4A18687F
:108E100000287FD149F27531196010601960FFF7A1
:108E200007FD48B1554B574A1868002875D149F2DB
:108E300075311960106019604F4B1B68082B09D100
:108E4000514B40F2E3721A6040225A60BFF36F8FB9
:108E5000BFF34F8F474C4D498022C4F81C25C4F8FE
:108E600004134B49C1F884214A60FFF71BFD002819
:108E7000FBD00123C4F80435BFF36F8FBFF34F8FCE
:108E800046E03C4BD3F80025002A41D14FF4006264
:108E9000C3F80024BFF36F8FBFF34F8FFFF7C8FCF9
:108EA00048B1364B374A1868032128BB49F2753060
:108EB000186011601860304B1B68082B09D12F4BCC
:108EC0002F4A1868C021C8B949F27530186011607E
:108ED0001860284B0124C3F80045BFF36F8FBFF320
:108EE0004F8FFFF7DFFC98B9FFF7BAFC40B102B033
:108EF000BDE81040FFF7ACBC1160DCE71160E8E7AB
:108F0000244B18601B680193019B4FF080431C6049
:108F100002B010BD0023136081E7002313608BE7CC
:108F2000144BD3F80025002AF2D00022C3F8042500
:108F3000BFF36F8FBFF34F8F15498020C1F88400B6
:108F4000D3F80013C3F80813C3F80025BFF36F8FDD
:108F5000BFF34F8FFFF784FC48B1FFF77BFC012282
:108F60000221002002B0BDE8104000F06FB90A4BAA
:108F70001C60F4E7007002403001001000EC064075
:108F800014EC064014ED0640007802400514800100
:108F900000E100E0000100400400004010B504467C
:108FA0008089E288236802FB003001F089FCA389F4
:108FB000A1885A1CB2FBF1F301FB13239BB2A381DE
:108FC0006389994215BF6389A38901339BB216BF98
:108FD0009BB2E381638110BDC3809DF800300372B2
:108FE00000234381016083818280C3810120704717
:108FF00010B50446084663899BB2ABB1E28823688A
:10900000E18902FB013101F05BFCE389A1885A1C74
:10901000B2FBF1F301FB13239BB2E3816389013BB4
:109020009BB26381012010BD1846FCE7F8B5458965
:10903000ADB204460F464DB143899A428ABF458975
:109040001546ADB20026B3B29D4201D82846F8BD00
:10905000E2882368E189384602FB013101F030FCE7
:10906000E389A1885A1CB2FBF1F301FB13239BB2E5
:10907000E3816389013B9BB26381E38801361F442E
:10908000E1E708B5438982889A4201D1037A13B196
:10909000FFF784FF0123184608BDF8B505460F46C3
:1090A000144662B1037A33B9428983889B1A9BB212
:1090B0009C4228BF1C460026B3B29C4201D82046E1
:1090C000F8BD39462846FFF769FFEB8801361F4493
:1090D000F2E7002343818381C381012070470000B0
:1090E00038B50E4D0446312200212846FBF71AF907
:1090F0001022FF21681CFBF715F91022FF2105F152
:109100001100FBF70FF9204600F084FC204600F028
:10911000AFFD2046BDE8384000F046BFB8AD0020A6
:1091200070B505460E4614462AB90378012B02D1C4
:109130001046FFF747FC3146281DFFF7A2FF064601
:109140002CB92B78012B02D12046FFF735FC26B92C
:10915000034B1B68DB0700D500BE304670BD00BF67
:10916000F0ED00E0024B1878C0F34000704700BFFC
:10917000B8AD0020024B1878C0F38000704700BFE4
:10918000B8AD002010B50B4C0B4831220021FBF785
:10919000C9F8201DFFF79DFF084B1C6000F03CFD47
:1091A00000F0FAFE0020FFF705FC0020FFF704FCAA
:1091B000012010BDB0800020B8AD0020ECAD002033
:1091C00010B54378013B04460A46072B36D8DFE842
:1091D00003F01104351820112911194B19786FF378
:1091E0000001197019786FF34101197019786FF344
:1091F00082011970134B21461868BDE81040FFF733
:109200008FBF0F4B1978C90718D5197841F00401A1
:10921000EFE70B490B78D80710D50B786FF3820373
:109220000B70E7E7074B01461868FFF779FF637992
:1092300023B1054B1B68DB0700D500BE10BD00BF86
:10924000B8AD0020ECAD0020F0ED00E01FB500232C
:109250008DF804008DF8051001A81146CDF80630F0
:10926000CDF80A30ADF80E30FFF7AAFF05B05DF873
:1092700004FB1FB5002314460822CDF80630CDF8B4
:109280000A30ADF80E308DF8040006230DEB020015
:109290008DF8053001F014FB214601A8FFF790FF7F
:1092A00004B010BD1FB500248DF804000720CDF8D0
:1092B00006408DF805008DF8081001A89DF81810DB
:1092C000ADF80A4003928DF80930FFF779FF04B03A
:1092D00010BD00002DE9F047DDE9085680460C4638
:1092E00091469A460027B94501DC01200CE06378DD
:1092F000052B04D1E17801F00301514508D00E4B54
:109300001B68DA0702D40020BDE8F08700BEFAE748
:1093100021464046FFF772FB28B9074B1B68DB0765
:10932000F1D500BEF0E7A178CB0914BF31702970E8
:10933000237801371C44D6E7F0ED00E01FB5002389
:109340000193CDE902010823114601A88DF80530EB
:10935000FFF736FF05B05DF804FB000010B50C46C2
:10936000FFF77EFB60B1074904F07F0301EB430187
:1093700001EBD41191F8213043F0010381F8213041
:1093800010BD00BFB8AD0020054B01F07F0203EB1C
:10939000420303EBD11393F8210000F00100704762
:1093A000B8AD002010B50C46FFF79EFB094904F04C
:1093B0007F0301EB430101EBD41191F8213043F01D
:1093C000020381F8213091F8213043F0010381F844
:1093D000213010BDB8AD002010B50C46FFF796FB4C
:1093E000094904F07F0301EB430101EBD41191F82B
:1093F00021306FF3410381F8213091F821306FF370
:10940000000381F8213010BDB8AD00202DE9F04FE8
:1094100087B001F0A1F8002800F04182BC4EBD4D9C
:10942000BD4B1C682378012B02D10020FFF7CAFA3C
:1094300003A9201DFFF7DCFD2378012B804602D114
:109440000020FFF7B9FAB8F1000F00F028829DF86C
:109450000D30013B072B00F2488201A252F823F0A5
:1094600081940F008B940F0021940F00BB980F0084
:10947000CF980F009F940F0061980F00DD980F00A8
:109480009DF80C00FFF72CFECAE79DF80C00FFF7D3
:1094900027FEA24B002BC3D0FEF79FFFC0E72B781F
:1094A0009DF80C4043F0010300202B7000F0BAFA45
:1094B0009DF8102002F06001602905D13368D907BA
:1094C00040F1FA8000BEF7E0402910D1944B002B08
:1094D00000F0F280934808B100F0A4FA04A92046F5
:1094E000AFF300808046B8F1000F99D1E4E0C2F3F9
:1094F0000402D3B2012B00F0538152B24AB3022BC3
:10950000DCD19DF814A01AF07802D7D10AF07F07B9
:109510007F004FEADA1BEB195B4493F81190B9F125
:10952000010FCBD8002940F061819DF81130012B4B
:1095300000F08A81002B00F07781032BBED1BDF8AB
:109540001230002B40F0878151462046FFF72AFF5A
:1095500081E10029B2D19DF81130092BAED801A2CA
:1095600052F823F08B970F007B970F00BD940F00EC
:1095700069970F00BD940F008D950F00A7960F00FF
:10958000BD940F0099950F00B3950F009DF8121030
:109590002046FFF71FFA43E72B78C3F340038DF80B
:1095A0000A3001230DF10A0204A9204600F0FCF95B
:1095B00036E79DF8127020463946FFF71DFA002F56
:1095C0002B7814BF0122002262F341032B7025D0B7
:1095D000781EC0B2FEF72CFE10B14378022B05D0E6
:1095E0003368D8077FF56AAF00BE67E7C2792B788A
:1095F000DFF83CB1511161F30413921162F345138A
:109600002B70B0F8028000F1090780444FF0000A87
:10961000B84508D8444B0BB1FEF7DCFE04A9204640
:1096200000F0AAF9FCE67B780B2B02D13B781F44B3
:10963000EEE7042BD4D17B79022B04D0082BCFD1B9
:109640004FF0010901E04FF00009BB782B445A7834
:10965000FF2AC5D183F801900BEB4913ADF80AA09E
:10966000DB680DF10A023946204698470028B7D03A
:10967000BDF80A000828B3D93A46002351780529D5
:1096800009D192F802C00CF07F0105EB410101EB1A
:10969000DC1181F8119011780B449BB298420A4476
:1096A000ECD80744B4E7BDF81200070A022FC0B295
:1096B00040D00CD8012F1ED09DF80C000021FFF7E0
:1096C00013FA80219DF80C00FFF70EFAA8E6032F8D
:1096D00040D00F2FF0D1154B002BEDD0AFF3008011
:1096E0000222811807460DF10A0001F0E9F8BDF8E1
:1096F0000A303A4603E0FEF797FD1223024604A91A
:10970000204600F051F900287FF48AAED4E700BF6C
:10971000F0ED00E0B8AD0020ECAD0020DB830F00E1
:109720000000000000000000D5830F0000000000D2
:1097300000B50F00FEF77CFD804600283FF4BEAE6A
:109740003A46811C0DF10A0001F0BAF8BDF80A3062
:109750004246D4E7EE28AFD0FEF792FD024600283D
:109760003FF4ACAE0378CAE7BDF81230012BA3D1A9
:109770002B7843F008032B7050E7BDF81230012B13
:109780009AD12B786FF3C303F5E72B78C3F340121C
:109790009B0803F002031343ADF80A30022301E7EC
:1097A0009DF814200F2A87D82A445278012A83D89A
:1097B00029B99DF811000A280FD00B2810D04E4F60
:1097C00007EB4217786900F02DF93B69002B3FF455
:1097D00073AF04A92046984795E78DF80A10E1E693
:1097E0009DF81230002B7FF469AE17E7424B0192CF
:1097F00003EB4913586900F015F99DF8103013F088
:10980000600F3FF492AE019A90463B4B03EB49192F
:10981000D9F81030002B3FF466AE04A920469847D3
:1098200000287FF4FDAD5EE62F445F440DF10A028F
:1098300097F82130C3F34003ADF80A3004A902239E
:10984000204600F0B1F8E0E7BDF812301BB95146F0
:109850002046FFF7C1FD04A9204600F08DF8D4E7AB
:109860009DF8101001F07F0005EB400303EBD113CE
:1098700093F821206FF3000283F8212038B9059B6B
:109880009DF811209DF80C0000F0D2F8C8E55A7C34
:10989000012A07D9194B1B68DA0700D500BE07B0AB
:1098A000BDE8F08F144B9DF80C0003EB42139DF8BC
:1098B00011209C69059BA047B2E5114B002B3FF49A
:1098C000AFAD2878C0F3C000AFF30080A8E50D4B22
:1098D000002B3FF4A5ADAFF30080A1E5049B002B66
:1098E0003FF49EAD059898479AE53368DB077FF50E
:1098F00097AD00BE94E500BF00B50F00F0ED00E0AD
:109900000000000000000000054B01F07F0203EBA7
:10991000420303EBD11393F82100C0F340007047DA
:10992000B8AD002070B5124B9989DA898C1AA4B2AF
:10993000054693F90000402C28BF4024002809DA8E
:10994000914212D099680B48224600F0B9FF80215D
:10995000084A04E091424FF00001F9D10022234669
:109960002846BDE87040FFF77BB88021F6E700BFCE
:10997000F0AD002004AE002030B40A4C05460A4683
:1099800008684968234603C30023C4E9023392F9F7
:1099900000209A4228461A46ACBF8021194630BCA6
:1099A000FFF75EB8F0AD0020F8B5184D0C4607463D
:1099B00008684968AA602E4603C60021E981E1884B
:1099C0008B4228BF0B46AB8173B13AB9104B1B6871
:1099D000DA0701D40020F8BD00BEFBE73846FFF7E8
:1099E000A1FF68B10120F6E794F90020002AA8BF82
:1099F00080211A46B8BF00213846FFF731F8F0E75A
:109A0000034B1B68DB07E5D500BEE4E7F0AD0020A3
:109A1000F0ED00E0142200210148FAF783BC00BFFA
:109A2000F0AD0020014B1861704700BFF0AD002081
:109A300070B5294C1E462378C909B1EBD31F0546E2
:109A40000AD00EB9012004E0244B1B68DA0701D4C8
:109A5000002070BD00BEFBE794F90030002B06DB50
:109A6000A0680028F4D032461D4900F029FFA36801
:109A7000E28933443244A360E38892B29342E281A4
:109A800001D03F2E23D823699BB994F90030002BD5
:109A90004FF000031A46ACBF802119462846FEF756
:109AA000DFFF0028CED10D4B1B68DB07D0D500BEF1
:109AB000CFE709492846984701460028E5D12846BE
:109AC000FFF712F880212846FFF70EF8BAE728467C
:109AD000FFF728FFE5E700BFF0AD0020F0ED00E064
